:1000000071EF00F00000000000EF00F000000000C1
:0A0010000000000000000000F3D71C
:0E001C00ACB202D00000FCD767C0ADFF1200EE
:0A002A00000E9EBA010E006E1200D7
:10003400AECF01F0ABA202D0AB98AB8801C000F008
:020044001200A8
:100046000001606B65C0E9FF66C0EAFFEECF5FF0B6
:100056005F50000A0EE05FC067F0DDDF0001602B35
:1000660060516525E96E000E6621EA6EEECF5FF0FF
:04007600EFD71200AE
:10007A000900F5CFE6FF0006FBE10106F9E11200EF
:10008A001C0E536E000E546E670E556E000E566EA1
:10009A00340E576E000E586E000E596E000E5A6ED0
:1000AA002A0E5B6E000E5C6E000E5D6E000E5E6EBA
:1000BA00FF0E0001616FFF0E626F000E636F000E8C
:1000CA00646FAC8A900EAB6E948E949C9EAA03D0F9
:0800DA00AECF00F0FBD71200CD
:1000E200C2EC00F00F0EC16E700ED36E936AB8862A
:1000F200B06ACF0EAF6EAC84C7DF010E8A6E1A0EE5
:100102000B6E5E0E0C6E6E0E0D6E0D2EFED70C2E4D
:10011200FCD70B2EFAD70000410E656F000E666FFA
:1001220091DF8A6A8A8E150E656F000E666F8ADF0E
:100132007BDF0050010A04E17CDF00C067F06DDF65
:04014200F7D7FFD715
:1001840010EE15F03E0E006E010E016E460EF66E78
:0E019400010EF76E000EF86E3DEC00F012004A
:100146005354580A57694669436F6E6E6563740A5D
:100156004C6F72656E7A6F0A6D61737465726A654B
:0C0166006C6C616C4A4B4C3132330A0067
:10017200504943203435353020526561647921215C
:0201820021005A
:020000040030CA
:0E0000000009191EFF8380FF0FC00FE00F40A4
:00000001FF
